{
  "_format": "hh-sol-artifact-1",
  "contractName": "RandomNumberRaffle",
  "sourceName": "contracts/RandomNumberRaffle.sol",
  "abi": [
    {
      "inputs": [],
      "stateMutability": "nonpayable",
      "type": "constructor"
    },
    {
      "anonymous": false,
      "inputs": [
        {
          "indexed": true,
          "internalType": "address",
          "name": "participant",
          "type": "address"
        },
        {
          "indexed": false,
          "internalType": "string",
          "name": "name",
          "type": "string"
        },
        {
          "indexed": false,
          "internalType": "uint256",
          "name": "number",
          "type": "uint256"
        }
      ],
      "name": "ParticipantEntered",
      "type": "event"
    },
    {
      "anonymous": false,
      "inputs": [
        {
          "indexed": true,
          "internalType": "address",
          "name": "winner",
          "type": "address"
        },
        {
          "indexed": false,
          "internalType": "string",
          "name": "name",
          "type": "string"
        },
        {
          "indexed": false,
          "internalType": "uint256",
          "name": "number",
          "type": "uint256"
        }
      ],
      "name": "WinnerDrawn",
      "type": "event"
    },
    {
      "inputs": [],
      "name": "MAX_NUMBER",
      "outputs": [
        {
          "internalType": "uint256",
          "name": "",
          "type": "uint256"
        }
      ],
      "stateMutability": "view",
      "type": "function"
    },
    {
      "inputs": [],
      "name": "admin",
      "outputs": [
        {
          "internalType": "address",
          "name": "",
          "type": "address"
        }
      ],
      "stateMutability": "view",
      "type": "function"
    },
    {
      "inputs": [
        {
          "internalType": "uint256",
          "name": "",
          "type": "uint256"
        }
      ],
      "name": "assignedNumbers",
      "outputs": [
        {
          "internalType": "uint256",
          "name": "",
          "type": "uint256"
        }
      ],
      "stateMutability": "view",
      "type": "function"
    },
    {
      "inputs": [],
      "name": "drawWinner",
      "outputs": [
        {
          "components": [
            {
              "internalType": "address",
              "name": "winnerAddress",
              "type": "address"
            },
            {
              "internalType": "string",
              "name": "name",
              "type": "string"
            },
            {
              "internalType": "uint256",
              "name": "number",
              "type": "uint256"
            }
          ],
          "internalType": "struct RandomNumberRaffle.WinnerInfo",
          "name": "winnerInfo",
          "type": "tuple"
        }
      ],
      "stateMutability": "nonpayable",
      "type": "function"
    },
    {
      "inputs": [
        {
          "internalType": "string",
          "name": "_name",
          "type": "string"
        }
      ],
      "name": "enterRaffle",
      "outputs": [],
      "stateMutability": "nonpayable",
      "type": "function"
    },
    {
      "inputs": [],
      "name": "getAllWinners",
      "outputs": [
        {
          "components": [
            {
              "internalType": "address",
              "name": "winnerAddress",
              "type": "address"
            },
            {
              "internalType": "string",
              "name": "name",
              "type": "string"
            },
            {
              "internalType": "uint256",
              "name": "number",
              "type": "uint256"
            }
          ],
          "internalType": "struct RandomNumberRaffle.WinnerInfo[]",
          "name": "",
          "type": "tuple[]"
        }
      ],
      "stateMutability": "view",
      "type": "function"
    },
    {
      "inputs": [],
      "name": "getLatestWinner",
      "outputs": [
        {
          "components": [
            {
              "internalType": "address",
              "name": "winnerAddress",
              "type": "address"
            },
            {
              "internalType": "string",
              "name": "name",
              "type": "string"
            },
            {
              "internalType": "uint256",
              "name": "number",
              "type": "uint256"
            }
          ],
          "internalType": "struct RandomNumberRaffle.WinnerInfo",
          "name": "",
          "type": "tuple"
        }
      ],
      "stateMutability": "view",
      "type": "function"
    },
    {
      "inputs": [],
      "name": "getParticipantCount",
      "outputs": [
        {
          "internalType": "uint256",
          "name": "",
          "type": "uint256"
        }
      ],
      "stateMutability": "view",
      "type": "function"
    },
    {
      "inputs": [
        {
          "internalType": "address",
          "name": "_participant",
          "type": "address"
        }
      ],
      "name": "getParticipantInfo",
      "outputs": [
        {
          "internalType": "string",
          "name": "name",
          "type": "string"
        },
        {
          "internalType": "uint256",
          "name": "number",
          "type": "uint256"
        },
        {
          "internalType": "bool",
          "name": "exists",
          "type": "bool"
        }
      ],
      "stateMutability": "view",
      "type": "function"
    },
    {
      "inputs": [
        {
          "internalType": "uint256",
          "name": "_index",
          "type": "uint256"
        }
      ],
      "name": "getWinnerByIndex",
      "outputs": [
        {
          "components": [
            {
              "internalType": "address",
              "name": "winnerAddress",
              "type": "address"
            },
            {
              "internalType": "string",
              "name": "name",
              "type": "string"
            },
            {
              "internalType": "uint256",
              "name": "number",
              "type": "uint256"
            }
          ],
          "internalType": "struct RandomNumberRaffle.WinnerInfo",
          "name": "",
          "type": "tuple"
        }
      ],
      "stateMutability": "view",
      "type": "function"
    },
    {
      "inputs": [],
      "name": "getWinnerCount",
      "outputs": [
        {
          "internalType": "uint256",
          "name": "",
          "type": "uint256"
        }
      ],
      "stateMutability": "view",
      "type": "function"
    },
    {
      "inputs": [
        {
          "internalType": "address",
          "name": "_participant",
          "type": "address"
        }
      ],
      "name": "isWinner",
      "outputs": [
        {
          "internalType": "bool",
          "name": "",
          "type": "bool"
        }
      ],
      "stateMutability": "view",
      "type": "function"
    },
    {
      "inputs": [
        {
          "internalType": "uint256",
          "name": "",
          "type": "uint256"
        }
      ],
      "name": "numberAssigned",
      "outputs": [
        {
          "internalType": "bool",
          "name": "",
          "type": "bool"
        }
      ],
      "stateMutability": "view",
      "type": "function"
    },
    {
      "inputs": [
        {
          "internalType": "uint256",
          "name": "",
          "type": "uint256"
        }
      ],
      "name": "participantAddresses",
      "outputs": [
        {
          "internalType": "address",
          "name": "",
          "type": "address"
        }
      ],
      "stateMutability": "view",
      "type": "function"
    },
    {
      "inputs": [
        {
          "internalType": "address",
          "name": "",
          "type": "address"
        }
      ],
      "name": "participants",
      "outputs": [
        {
          "internalType": "string",
          "name": "name",
          "type": "string"
        },
        {
          "internalType": "uint256",
          "name": "number",
          "type": "uint256"
        },
        {
          "internalType": "bool",
          "name": "exists",
          "type": "bool"
        }
      ],
      "stateMutability": "view",
      "type": "function"
    },
    {
      "inputs": [
        {
          "internalType": "uint256",
          "name": "",
          "type": "uint256"
        }
      ],
      "name": "winnerAddresses",
      "outputs": [
        {
          "internalType": "address",
          "name": "",
          "type": "address"
        }
      ],
      "stateMutability": "view",
      "type": "function"
    },
    {
      "inputs": [
        {
          "internalType": "uint256",
          "name": "",
          "type": "uint256"
        }
      ],
      "name": "winners",
      "outputs": [
        {
          "internalType": "address",
          "name": "winnerAddress",
          "type": "address"
        },
        {
          "internalType": "string",
          "name": "name",
          "type": "string"
        },
        {
          "internalType": "uint256",
          "name": "number",
          "type": "uint256"
        }
      ],
      "stateMutability": "view",
      "type": "function"
    }
  ],
  "bytecode": "0x6080604052348015600f57600080fd5b50336000806101000a81548173ffffffffffffffffffffffffffffffffffffffff021916908373ffffffffffffffffffffffffffffffffffffffff1602179055506124cb8061005f6000396000f3fe608060405234801561001057600080fd5b506004361061010b5760003560e01c806388338ea4116100a2578063ad60572911610071578063ad6057291461031e578063b2185bb11461033c578063dc6b86271461035a578063f851a44014610378578063fea9b572146103965761010b565b806388338ea41461026e5780639d9ca28d1461029e578063a2fb1175146102ce578063a46c3637146103005761010b565b8063364fc823116100de578063364fc823146101be5780634fdd3b64146101ee57806354ffbddb1461020c57806371bdce551461023c5761010b565b8063045f9c97146101105780630609ff671461014057806309e69ede146101705780631ac2103c146101a2575b600080fd5b61012a600480360381019061012591906116ab565b6103b4565b6040516101379190611719565b60405180910390f35b61015a600480360381019061015591906116ab565b6103f3565b6040516101679190611832565b60405180910390f35b61018a60048036038101906101859190611880565b610568565b60405161019993929190611921565b60405180910390f35b6101bc60048036038101906101b79190611a94565b610627565b005b6101d860048036038101906101d391906116ab565b6108b7565b6040516101e59190611add565b60405180910390f35b6101f66108d7565b6040516102039190611832565b60405180910390f35b610226600480360381019061022191906116ab565b610a5c565b6040516102339190611719565b60405180910390f35b61025660048036038101906102519190611880565b610a9b565b60405161026593929190611921565b60405180910390f35b610288600480360381019061028391906116ab565b610bc2565b6040516102959190611af8565b60405180910390f35b6102b860048036038101906102b39190611880565b610be6565b6040516102c59190611add565b60405180910390f35b6102e860048036038101906102e391906116ab565b610c8e565b6040516102f793929190611b13565b60405180910390f35b610308610d70565b6040516103159190611af8565b60405180910390f35b610326610d7d565b6040516103339190611af8565b60405180910390f35b610344610d8a565b6040516103519190611832565b60405180910390f35b610362611371565b60405161036f9190611c63565b60405180910390f35b6103806114c2565b60405161038d9190611719565b60405180910390f35b61039e6114e6565b6040516103ab9190611af8565b60405180910390f35b600481815481106103c457600080fd5b906000526020600020016000915054906101000a900473ffffffffffffffffffffffffffffffffffffffff1681565b6103fb61162a565b6005805490508210610442576040517f08c379a000000000000000000000000000000000000000000000000000000000815260040161043990611cd1565b60405180910390fd5b6005828154811061045657610455611cf1565b5b90600052602060002090600302016040518060600160405290816000820160009054906101000a900473ffffffffffffffffffffffffffffffffffffffff1673ffffffffffffffffffffffffffffffffffffffff1673ffffffffffffffffffffffffffffffffffffffff1681526020016001820180546104d590611d4f565b80601f016020809104026020016040519081016040528092919081815260200182805461050190611d4f565b801561054e5780601f106105235761010080835404028352916020019161054e565b820191906000526020600020905b81548152906001019060200180831161053157829003601f168201915b505050505081526020016002820154815250509050919050565b600160205280600052604060002060009150905080600001805461058b90611d4f565b80601f01602080910402602001604051908101604052809291908181526020018280546105b790611d4f565b80156106045780601f106105d957610100808354040283529160200191610604565b820191906000526020600020905b8154815290600101906020018083116105e757829003601f168201915b5050505050908060010154908060020160009054906101000a900460ff16905083565b600160003373ffffffffffffffffffffffffffffffffffffffff1673ffffffffffffffffffffffffffffffffffffffff16815260200190815260200160002060020160009054906101000a900460ff16156106b7576040517f08c379a00000000000000000000000000000000000000000000000000000000081526004016106ae90611df2565b60405180910390fd5b6064600280549050106106ff576040517f08c379a00000000000000000000000000000000000000000000000000000000081526004016106f690611e5e565b60405180910390fd5b60006107096114eb565b9050604051806060016040528083815260200182815260200160011515815250600160003373ffffffffffffffffffffffffffffffffffffffff1673ffffffffffffffffffffffffffffffffffffffff168152602001908152602001600020600082015181600001908161077d919061202a565b506020820151816001015560408201518160020160006101000a81548160ff02191690831515021790555090505060016006600083815260200190815260200160002060006101000a81548160ff02191690831515021790555060028190806001815401808255809150506001900390600052602060002001600090919091909150556003339080600181540180825580915050600190039060005260206000200160009091909190916101000a81548173ffffffffffffffffffffffffffffffffffffffff021916908373ffffffffffffffffffffffffffffffffffffffff1602179055503373ffffffffffffffffffffffffffffffffffffffff167f86a7360783525e9a2203045da6194ece77885009ec3db6a4917a869dd27cae8483836040516108ab9291906120fc565b60405180910390a25050565b60066020528060005260406000206000915054906101000a900460ff1681565b6108df61162a565b600060058054905011610927576040517f08c379a000000000000000000000000000000000000000000000000000000000815260040161091e90612178565b60405180910390fd5b6005600160058054905061093b91906121c7565b8154811061094c5761094b611cf1565b5b90600052602060002090600302016040518060600160405290816000820160009054906101000a900473ffffffffffffffffffffffffffffffffffffffff1673ffffffffffffffffffffffffffffffffffffffff1673ffffffffffffffffffffffffffffffffffffffff1681526020016001820180546109cb90611d4f565b80601f01602080910402602001604051908101604052809291908181526020018280546109f790611d4f565b8015610a445780601f10610a1957610100808354040283529160200191610a44565b820191906000526020600020905b815481529060010190602001808311610a2757829003601f168201915b50505050508152602001600282015481525050905090565b60038181548110610a6c57600080fd5b906000526020600020016000915054906101000a900473ffffffffffffffffffffffffffffffffffffffff1681565b60606000806000600160008673ffffffffffffffffffffffffffffffffffffffff1673ffffffffffffffffffffffffffffffffffffffff168152602001908152602001600020604051806060016040529081600082018054610afc90611d4f565b80601f0160208091040260200160405190810160405280929190818152602001828054610b2890611d4f565b8015610b755780601f10610b4a57610100808354040283529160200191610b75565b820191906000526020600020905b815481529060010190602001808311610b5857829003601f168201915b50505050508152602001600182015481526020016002820160009054906101000a900460ff1615151515815250509050806000015181602001518260400151935093509350509193909250565b60028181548110610bd257600080fd5b906000526020600020016000915090505481565b600080600090505b600480549050811015610c83578273ffffffffffffffffffffffffffffffffffffffff1660048281548110610c2657610c25611cf1565b5b9060005260206000200160009054906101000a900473ffffffffffffffffffffffffffffffffffffffff1673ffffffffffffffffffffffffffffffffffffffff1603610c76576001915050610c89565b8080600101915050610bee565b50600090505b919050565b60058181548110610c9e57600080fd5b90600052602060002090600302016000915090508060000160009054906101000a900473ffffffffffffffffffffffffffffffffffffffff1690806001018054610ce790611d4f565b80601f0160208091040260200160405190810160405280929190818152602001828054610d1390611d4f565b8015610d605780601f10610d3557610100808354040283529160200191610d60565b820191906000526020600020905b815481529060010190602001808311610d4357829003601f168201915b5050505050908060020154905083565b6000600580549050905090565b6000600380549050905090565b610d9261162a565b60008054906101000a900473ffffffffffffffffffffffffffffffffffffffff1673ffffffffffffffffffffffffffffffffffffffff163373ffffffffffffffffffffffffffffffffffffffff1614610e20576040517f08c379a0000000000000000000000000000000000000000000000000000000008152600401610e179061226d565b60405180910390fd5b6000805b600380549050811015610f3057600060038281548110610e4757610e46611cf1565b5b9060005260206000200160009054906101000a900473ffffffffffffffffffffffffffffffffffffffff1690506000805b600480549050811015610f0c578273ffffffffffffffffffffffffffffffffffffffff1660048281548110610eb057610eaf611cf1565b5b9060005260206000200160009054906101000a900473ffffffffffffffffffffffffffffffffffffffff1673ffffffffffffffffffffffffffffffffffffffff1603610eff5760019150610f0c565b8080600101915050610e78565b5080610f21578380610f1d9061228d565b9450505b50508080600101915050610e24565b5060008111610f74576040517f08c379a0000000000000000000000000000000000000000000000000000000008152600401610f6b90612321565b60405180910390fd5b600081424433604051602001610f8c939291906123aa565b6040516020818303038152906040528051906020012060001c610faf9190612416565b90506000806000905060005b6003805490508110156110d857600060038281548110610fde57610fdd611cf1565b5b9060005260206000200160009054906101000a900473ffffffffffffffffffffffffffffffffffffffff1690506000805b6004805490508110156110a3578273ffffffffffffffffffffffffffffffffffffffff166004828154811061104757611046611cf1565b5b9060005260206000200160009054906101000a900473ffffffffffffffffffffffffffffffffffffffff1673ffffffffffffffffffffffffffffffffffffffff160361109657600191506110a3565b808060010191505061100f565b50806110c9578584036110ba5781945050506110d8565b83806110c59061228d565b9450505b50508080600101915050610fbb565b506000600160008473ffffffffffffffffffffffffffffffffffffffff1673ffffffffffffffffffffffffffffffffffffffff16815260200190815260200160002060405180606001604052908160008201805461113590611d4f565b80601f016020809104026020016040519081016040528092919081815260200182805461116190611d4f565b80156111ae5780601f10611183576101008083540402835291602001916111ae565b820191906000526020600020905b81548152906001019060200180831161119157829003601f168201915b50505050508152602001600182015481526020016002820160009054906101000a900460ff161515151581525050905060405180606001604052808473ffffffffffffffffffffffffffffffffffffffff16815260200182600001518152602001826020015181525095506004839080600181540180825580915050600190039060005260206000200160009091909190916101000a81548173ffffffffffffffffffffffffffffffffffffffff021916908373ffffffffffffffffffffffffffffffffffffffff160217905550600586908060018154018082558091505060019003906000526020600020906003020160009091909190915060008201518160000160006101000a81548173ffffffffffffffffffffffffffffffffffffffff021916908373ffffffffffffffffffffffffffffffffffffffff1602179055506020820151816001019081611304919061202a565b506040820151816002015550508273ffffffffffffffffffffffffffffffffffffffff167f67805734df42031323dc7850c4457bd6cb0e2c13910e0137bc0fb8458f6f34d5826000015183602001516040516113619291906120fc565b60405180910390a2505050505090565b60606005805480602002602001604051908101604052809291908181526020016000905b828210156114b957838290600052602060002090600302016040518060600160405290816000820160009054906101000a900473ffffffffffffffffffffffffffffffffffffffff1673ffffffffffffffffffffffffffffffffffffffff1673ffffffffffffffffffffffffffffffffffffffff16815260200160018201805461141e90611d4f565b80601f016020809104026020016040519081016040528092919081815260200182805461144a90611d4f565b80156114975780601f1061146c57610100808354040283529160200191611497565b820191906000526020600020905b81548152906001019060200180831161147a57829003601f168201915b5050505050815260200160028201548152505081526020019060010190611395565b50505050905090565b60008054906101000a900473ffffffffffffffffffffffffffffffffffffffff1681565b606481565b600080600280549050606461150091906121c7565b67ffffffffffffffff81111561151957611518611969565b5b6040519080825280602002602001820160405280156115475781602001602082028036833780820191505090505b509050600080600190505b606481116115c1576006600082815260200190815260200160002060009054906101000a900460ff166115ae578083838151811061159357611592611cf1565b5b60200260200101818152505081806115aa9061228d565b9250505b80806115b99061228d565b915050611552565b50600082514244336002805490506040516020016115e29493929190612447565b6040516020818303038152906040528051906020012060001c6116059190612416565b905082818151811061161a57611619611cf1565b5b6020026020010151935050505090565b6040518060600160405280600073ffffffffffffffffffffffffffffffffffffffff16815260200160608152602001600081525090565b6000604051905090565b600080fd5b600080fd5b6000819050919050565b61168881611675565b811461169357600080fd5b50565b6000813590506116a58161167f565b92915050565b6000602082840312156116c1576116c061166b565b5b60006116cf84828501611696565b91505092915050565b600073ffffffffffffffffffffffffffffffffffffffff82169050919050565b6000611703826116d8565b9050919050565b611713816116f8565b82525050565b600060208201905061172e600083018461170a565b92915050565b61173d816116f8565b82525050565b600081519050919050565b600082825260208201905092915050565b60005b8381101561177d578082015181840152602081019050611762565b60008484015250505050565b6000601f19601f8301169050919050565b60006117a582611743565b6117af818561174e565b93506117bf81856020860161175f565b6117c881611789565b840191505092915050565b6117dc81611675565b82525050565b60006060830160008301516117fa6000860182611734565b5060208301518482036020860152611812828261179a565b915050604083015161182760408601826117d3565b508091505092915050565b6000602082019050818103600083015261184c81846117e2565b905092915050565b61185d816116f8565b811461186857600080fd5b50565b60008135905061187a81611854565b92915050565b6000602082840312156118965761189561166b565b5b60006118a48482850161186b565b91505092915050565b600082825260208201905092915050565b60006118c982611743565b6118d381856118ad565b93506118e381856020860161175f565b6118ec81611789565b840191505092915050565b61190081611675565b82525050565b60008115159050919050565b61191b81611906565b82525050565b6000606082019050818103600083015261193b81866118be565b905061194a60208301856118f7565b6119576040830184611912565b949350505050565b600080fd5b600080fd5b7f4e487b7100000000000000000000000000000000000000000000000000000000600052604160045260246000fd5b6119a182611789565b810181811067ffffffffffffffff821117156119c0576119bf611969565b5b80604052505050565b60006119d3611661565b90506119df8282611998565b919050565b600067ffffffffffffffff8211156119ff576119fe611969565b5b611a0882611789565b9050602081019050919050565b82818337600083830152505050565b6000611a37611a32846119e4565b6119c9565b905082815260208101848484011115611a5357611a52611964565b5b611a5e848285611a15565b509392505050565b600082601f830112611a7b57611a7a61195f565b5b8135611a8b848260208601611a24565b91505092915050565b600060208284031215611aaa57611aa961166b565b5b600082013567ffffffffffffffff811115611ac857611ac7611670565b5b611ad484828501611a66565b91505092915050565b6000602082019050611af26000830184611912565b92915050565b6000602082019050611b0d60008301846118f7565b92915050565b6000606082019050611b28600083018661170a565b8181036020830152611b3a81856118be565b9050611b4960408301846118f7565b949350505050565b600081519050919050565b600082825260208201905092915050565b6000819050602082019050919050565b6000606083016000830151611b956000860182611734565b5060208301518482036020860152611bad828261179a565b9150506040830151611bc260408601826117d3565b508091505092915050565b6000611bd98383611b7d565b905092915050565b6000602082019050919050565b6000611bf982611b51565b611c038185611b5c565b935083602082028501611c1585611b6d565b8060005b85811015611c515784840389528151611c328582611bcd565b9450611c3d83611be1565b925060208a01995050600181019050611c19565b50829750879550505050505092915050565b60006020820190508181036000830152611c7d8184611bee565b905092915050565b7f496e646578206f7574206f6620626f756e647300000000000000000000000000600082015250565b6000611cbb6013836118ad565b9150611cc682611c85565b602082019050919050565b60006020820190508181036000830152611cea81611cae565b9050919050565b7f4e487b7100000000000000000000000000000000000000000000000000000000600052603260045260246000fd5b7f4e487b7100000000000000000000000000000000000000000000000000000000600052602260045260246000fd5b60006002820490506001821680611d6757607f821691505b602082108103611d7a57611d79611d20565b5b50919050565b7f596f75206861766520616c726561647920656e7465726564207468652072616660008201527f666c650000000000000000000000000000000000000000000000000000000000602082015250565b6000611ddc6023836118ad565b9150611de782611d80565b604082019050919050565b60006020820190508181036000830152611e0b81611dcf565b9050919050565b7f416c6c206e756d626572732068617665206265656e2061737369676e65640000600082015250565b6000611e48601e836118ad565b9150611e5382611e12565b602082019050919050565b60006020820190508181036000830152611e7781611e3b565b9050919050565b60008190508160005260206000209050919050565b60006020601f8301049050919050565b600082821b905092915050565b600060088302611ee07fffffffffffffffffffffffffffffffffffffffffffffffffffffffffffffffff82611ea3565b611eea8683611ea3565b95508019841693508086168417925050509392505050565b6000819050919050565b6000611f27611f22611f1d84611675565b611f02565b611675565b9050919050565b6000819050919050565b611f4183611f0c565b611f55611f4d82611f2e565b848454611eb0565b825550505050565b600090565b611f6a611f5d565b611f75818484611f38565b505050565b5b81811015611f9957611f8e600082611f62565b600181019050611f7b565b5050565b601f821115611fde57611faf81611e7e565b611fb884611e93565b81016020851015611fc7578190505b611fdb611fd385611e93565b830182611f7a565b50505b505050565b600082821c905092915050565b600061200160001984600802611fe3565b1980831691505092915050565b600061201a8383611ff0565b9150826002028217905092915050565b61203382611743565b67ffffffffffffffff81111561204c5761204b611969565b5b6120568254611d4f565b612061828285611f9d565b600060209050601f8311600181146120945760008415612082578287015190505b61208c858261200e565b8655506120f4565b601f1984166120a286611e7e565b60005b828110156120ca578489015182556001820191506020850194506020810190506120a5565b868310156120e757848901516120e3601f891682611ff0565b8355505b6001600288020188555050505b505050505050565b6000604082019050818103600083015261211681856118be565b905061212560208301846118f7565b9392505050565b7f4e6f2077696e6e65727320796574000000000000000000000000000000000000600082015250565b6000612162600e836118ad565b915061216d8261212c565b602082019050919050565b6000602082019050818103600083015261219181612155565b9050919050565b7f4e487b7100000000000000000000000000000000000000000000000000000000600052601160045260246000fd5b60006121d282611675565b91506121dd83611675565b92508282039050818111156121f5576121f4612198565b5b92915050565b7f4f6e6c792061646d696e2063616e2063616c6c20746869732066756e6374696f60008201527f6e00000000000000000000000000000000000000000000000000000000000000602082015250565b60006122576021836118ad565b9150612262826121fb565b604082019050919050565b600060208201905081810360008301526122868161224a565b9050919050565b600061229882611675565b91507fffffffffffffffffffffffffffffffffffffffffffffffffffffffffffffffff82036122ca576122c9612198565b5b600182019050919050565b7f4e6f20656c696769626c65207061727469636970616e7473206c656674000000600082015250565b600061230b601d836118ad565b9150612316826122d5565b602082019050919050565b6000602082019050818103600083015261233a816122fe565b9050919050565b6000819050919050565b61235c61235782611675565b612341565b82525050565b60008160601b9050919050565b600061237a82612362565b9050919050565b600061238c8261236f565b9050919050565b6123a461239f826116f8565b612381565b82525050565b60006123b6828661234b565b6020820191506123c6828561234b565b6020820191506123d68284612393565b601482019150819050949350505050565b7f4e487b7100000000000000000000000000000000000000000000000000000000600052601260045260246000fd5b600061242182611675565b915061242c83611675565b92508261243c5761243b6123e7565b5b828206905092915050565b6000612453828761234b565b602082019150612463828661234b565b6020820191506124738285612393565b601482019150612483828461234b565b6020820191508190509594505050505056fea2646970667358221220fc26f7f72ac7a87b5bc114f83170052dba2965c56702b0cfc75da6a6f2b3ecd464736f6c634300081c0033",
  "linkReferences": {},
  "deployedLinkReferences": {}
}