{
  "_format": "hh-sol-artifact-1",
  "contractName": "RandomNumberRaffle",
  "sourceName": "contracts/RandomNumberRaffle.sol",
  "abi": [
    {
      "inputs": [],
      "stateMutability": "nonpayable",
      "type": "constructor"
    },
    {
      "anonymous": false,
      "inputs": [
        {
          "indexed": false,
          "internalType": "uint256",
          "name": "timestamp",
          "type": "uint256"
        }
      ],
      "name": "LotteryReset",
      "type": "event"
    },
    {
      "anonymous": false,
      "inputs": [
        {
          "indexed": true,
          "internalType": "address",
          "name": "participant",
          "type": "address"
        },
        {
          "indexed": false,
          "internalType": "string",
          "name": "name",
          "type": "string"
        },
        {
          "indexed": false,
          "internalType": "uint256",
          "name": "number",
          "type": "uint256"
        }
      ],
      "name": "ParticipantEntered",
      "type": "event"
    },
    {
      "anonymous": false,
      "inputs": [
        {
          "indexed": true,
          "internalType": "address",
          "name": "winner",
          "type": "address"
        },
        {
          "indexed": false,
          "internalType": "string",
          "name": "name",
          "type": "string"
        },
        {
          "indexed": false,
          "internalType": "uint256",
          "name": "number",
          "type": "uint256"
        }
      ],
      "name": "WinnerDrawn",
      "type": "event"
    },
    {
      "inputs": [],
      "name": "MAX_NUMBER",
      "outputs": [
        {
          "internalType": "uint256",
          "name": "",
          "type": "uint256"
        }
      ],
      "stateMutability": "view",
      "type": "function"
    },
    {
      "inputs": [],
      "name": "admin",
      "outputs": [
        {
          "internalType": "address",
          "name": "",
          "type": "address"
        }
      ],
      "stateMutability": "view",
      "type": "function"
    },
    {
      "inputs": [
        {
          "internalType": "uint256",
          "name": "",
          "type": "uint256"
        }
      ],
      "name": "assignedNumbers",
      "outputs": [
        {
          "internalType": "uint256",
          "name": "",
          "type": "uint256"
        }
      ],
      "stateMutability": "view",
      "type": "function"
    },
    {
      "inputs": [],
      "name": "drawWinner",
      "outputs": [
        {
          "components": [
            {
              "internalType": "address",
              "name": "winnerAddress",
              "type": "address"
            },
            {
              "internalType": "string",
              "name": "name",
              "type": "string"
            },
            {
              "internalType": "uint256",
              "name": "number",
              "type": "uint256"
            }
          ],
          "internalType": "struct RandomNumberRaffle.WinnerInfo",
          "name": "winnerInfo",
          "type": "tuple"
        }
      ],
      "stateMutability": "nonpayable",
      "type": "function"
    },
    {
      "inputs": [
        {
          "internalType": "string",
          "name": "_name",
          "type": "string"
        }
      ],
      "name": "enterRaffle",
      "outputs": [],
      "stateMutability": "nonpayable",
      "type": "function"
    },
    {
      "inputs": [],
      "name": "getAllWinners",
      "outputs": [
        {
          "components": [
            {
              "internalType": "address",
              "name": "winnerAddress",
              "type": "address"
            },
            {
              "internalType": "string",
              "name": "name",
              "type": "string"
            },
            {
              "internalType": "uint256",
              "name": "number",
              "type": "uint256"
            }
          ],
          "internalType": "struct RandomNumberRaffle.WinnerInfo[]",
          "name": "",
          "type": "tuple[]"
        }
      ],
      "stateMutability": "view",
      "type": "function"
    },
    {
      "inputs": [],
      "name": "getLatestWinner",
      "outputs": [
        {
          "components": [
            {
              "internalType": "address",
              "name": "winnerAddress",
              "type": "address"
            },
            {
              "internalType": "string",
              "name": "name",
              "type": "string"
            },
            {
              "internalType": "uint256",
              "name": "number",
              "type": "uint256"
            }
          ],
          "internalType": "struct RandomNumberRaffle.WinnerInfo",
          "name": "",
          "type": "tuple"
        }
      ],
      "stateMutability": "view",
      "type": "function"
    },
    {
      "inputs": [],
      "name": "getParticipantCount",
      "outputs": [
        {
          "internalType": "uint256",
          "name": "",
          "type": "uint256"
        }
      ],
      "stateMutability": "view",
      "type": "function"
    },
    {
      "inputs": [
        {
          "internalType": "address",
          "name": "_participant",
          "type": "address"
        }
      ],
      "name": "getParticipantInfo",
      "outputs": [
        {
          "internalType": "string",
          "name": "name",
          "type": "string"
        },
        {
          "internalType": "uint256",
          "name": "number",
          "type": "uint256"
        },
        {
          "internalType": "bool",
          "name": "exists",
          "type": "bool"
        }
      ],
      "stateMutability": "view",
      "type": "function"
    },
    {
      "inputs": [
        {
          "internalType": "uint256",
          "name": "_index",
          "type": "uint256"
        }
      ],
      "name": "getWinnerByIndex",
      "outputs": [
        {
          "components": [
            {
              "internalType": "address",
              "name": "winnerAddress",
              "type": "address"
            },
            {
              "internalType": "string",
              "name": "name",
              "type": "string"
            },
            {
              "internalType": "uint256",
              "name": "number",
              "type": "uint256"
            }
          ],
          "internalType": "struct RandomNumberRaffle.WinnerInfo",
          "name": "",
          "type": "tuple"
        }
      ],
      "stateMutability": "view",
      "type": "function"
    },
    {
      "inputs": [],
      "name": "getWinnerCount",
      "outputs": [
        {
          "internalType": "uint256",
          "name": "",
          "type": "uint256"
        }
      ],
      "stateMutability": "view",
      "type": "function"
    },
    {
      "inputs": [
        {
          "internalType": "address",
          "name": "_participant",
          "type": "address"
        }
      ],
      "name": "isWinner",
      "outputs": [
        {
          "internalType": "bool",
          "name": "",
          "type": "bool"
        }
      ],
      "stateMutability": "view",
      "type": "function"
    },
    {
      "inputs": [
        {
          "internalType": "uint256",
          "name": "",
          "type": "uint256"
        }
      ],
      "name": "numberAssigned",
      "outputs": [
        {
          "internalType": "bool",
          "name": "",
          "type": "bool"
        }
      ],
      "stateMutability": "view",
      "type": "function"
    },
    {
      "inputs": [
        {
          "internalType": "uint256",
          "name": "",
          "type": "uint256"
        }
      ],
      "name": "participantAddresses",
      "outputs": [
        {
          "internalType": "address",
          "name": "",
          "type": "address"
        }
      ],
      "stateMutability": "view",
      "type": "function"
    },
    {
      "inputs": [
        {
          "internalType": "address",
          "name": "",
          "type": "address"
        }
      ],
      "name": "participants",
      "outputs": [
        {
          "internalType": "string",
          "name": "name",
          "type": "string"
        },
        {
          "internalType": "uint256",
          "name": "number",
          "type": "uint256"
        },
        {
          "internalType": "bool",
          "name": "exists",
          "type": "bool"
        }
      ],
      "stateMutability": "view",
      "type": "function"
    },
    {
      "inputs": [],
      "name": "resetLottery",
      "outputs": [],
      "stateMutability": "nonpayable",
      "type": "function"
    },
    {
      "inputs": [
        {
          "internalType": "uint256",
          "name": "",
          "type": "uint256"
        }
      ],
      "name": "winnerAddresses",
      "outputs": [
        {
          "internalType": "address",
          "name": "",
          "type": "address"
        }
      ],
      "stateMutability": "view",
      "type": "function"
    },
    {
      "inputs": [
        {
          "internalType": "uint256",
          "name": "",
          "type": "uint256"
        }
      ],
      "name": "winners",
      "outputs": [
        {
          "internalType": "address",
          "name": "winnerAddress",
          "type": "address"
        },
        {
          "internalType": "string",
          "name": "name",
          "type": "string"
        },
        {
          "internalType": "uint256",
          "name": "number",
          "type": "uint256"
        }
      ],
      "stateMutability": "view",
      "type": "function"
    }
  ],
  "bytecode": "0x6080604052348015600f57600080fd5b50336000806101000a81548173ffffffffffffffffffffffffffffffffffffffff021916908373ffffffffffffffffffffffffffffffffffffffff1602179055506128118061005f6000396000f3fe608060405234801561001057600080fd5b50600436106101165760003560e01c80639d9ca28d116100a2578063b2185bb111610071578063b2185bb114610347578063d337616e14610365578063dc6b86271461036f578063f851a4401461038d578063fea9b572146103ab57610116565b80639d9ca28d146102a9578063a2fb1175146102d9578063a46c36371461030b578063ad6057291461032957610116565b8063364fc823116100e9578063364fc823146101c95780634fdd3b64146101f957806354ffbddb1461021757806371bdce551461024757806388338ea41461027957610116565b8063045f9c971461011b5780630609ff671461014b57806309e69ede1461017b5780631ac2103c146101ad575b600080fd5b610135600480360381019061013091906119f1565b6103c9565b6040516101429190611a5f565b60405180910390f35b610165600480360381019061016091906119f1565b610408565b6040516101729190611b78565b60405180910390f35b61019560048036038101906101909190611bc6565b61057d565b6040516101a493929190611c67565b60405180910390f35b6101c760048036038101906101c29190611dda565b61063c565b005b6101e360048036038101906101de91906119f1565b6108cc565b6040516101f09190611e23565b60405180910390f35b6102016108ec565b60405161020e9190611b78565b60405180910390f35b610231600480360381019061022c91906119f1565b610a71565b60405161023e9190611a5f565b60405180910390f35b610261600480360381019061025c9190611bc6565b610ab0565b60405161027093929190611c67565b60405180910390f35b610293600480360381019061028e91906119f1565b610bd7565b6040516102a09190611e3e565b60405180910390f35b6102c360048036038101906102be9190611bc6565b610bfb565b6040516102d09190611e23565b60405180910390f35b6102f360048036038101906102ee91906119f1565b610ca3565b60405161030293929190611e59565b60405180910390f35b610313610d85565b6040516103209190611e3e565b60405180910390f35b610331610d92565b60405161033e9190611e3e565b60405180910390f35b61034f610d9f565b60405161035c9190611b78565b60405180910390f35b61036d611386565b005b61037761159e565b6040516103849190611fa9565b60405180910390f35b6103956116ef565b6040516103a29190611a5f565b60405180910390f35b6103b3611713565b6040516103c09190611e3e565b60405180910390f35b600481815481106103d957600080fd5b906000526020600020016000915054906101000a900473ffffffffffffffffffffffffffffffffffffffff1681565b610410611857565b6005805490508210610457576040517f08c379a000000000000000000000000000000000000000000000000000000000815260040161044e90612017565b60405180910390fd5b6005828154811061046b5761046a612037565b5b90600052602060002090600302016040518060600160405290816000820160009054906101000a900473ffffffffffffffffffffffffffffffffffffffff1673ffffffffffffffffffffffffffffffffffffffff1673ffffffffffffffffffffffffffffffffffffffff1681526020016001820180546104ea90612095565b80601f016020809104026020016040519081016040528092919081815260200182805461051690612095565b80156105635780601f1061053857610100808354040283529160200191610563565b820191906000526020600020905b81548152906001019060200180831161054657829003601f168201915b505050505081526020016002820154815250509050919050565b60016020528060005260406000206000915090508060000180546105a090612095565b80601f01602080910402602001604051908101604052809291908181526020018280546105cc90612095565b80156106195780601f106105ee57610100808354040283529160200191610619565b820191906000526020600020905b8154815290600101906020018083116105fc57829003601f168201915b5050505050908060010154908060020160009054906101000a900460ff16905083565b600160003373ffffffffffffffffffffffffffffffffffffffff1673ffffffffffffffffffffffffffffffffffffffff16815260200190815260200160002060020160009054906101000a900460ff16156106cc576040517f08c379a00000000000000000000000000000000000000000000000000000000081526004016106c390612138565b60405180910390fd5b606460028054905010610714576040517f08c379a000000000000000000000000000000000000000000000000000000000815260040161070b906121a4565b60405180910390fd5b600061071e611718565b9050604051806060016040528083815260200182815260200160011515815250600160003373ffffffffffffffffffffffffffffffffffffffff1673ffffffffffffffffffffffffffffffffffffffff16815260200190815260200160002060008201518160000190816107929190612370565b506020820151816001015560408201518160020160006101000a81548160ff02191690831515021790555090505060016006600083815260200190815260200160002060006101000a81548160ff02191690831515021790555060028190806001815401808255809150506001900390600052602060002001600090919091909150556003339080600181540180825580915050600190039060005260206000200160009091909190916101000a81548173ffffffffffffffffffffffffffffffffffffffff021916908373ffffffffffffffffffffffffffffffffffffffff1602179055503373ffffffffffffffffffffffffffffffffffffffff167f86a7360783525e9a2203045da6194ece77885009ec3db6a4917a869dd27cae8483836040516108c0929190612442565b60405180910390a25050565b60066020528060005260406000206000915054906101000a900460ff1681565b6108f4611857565b60006005805490501161093c576040517f08c379a0000000000000000000000000000000000000000000000000000000008152600401610933906124be565b60405180910390fd5b60056001600580549050610950919061250d565b8154811061096157610960612037565b5b90600052602060002090600302016040518060600160405290816000820160009054906101000a900473ffffffffffffffffffffffffffffffffffffffff1673ffffffffffffffffffffffffffffffffffffffff1673ffffffffffffffffffffffffffffffffffffffff1681526020016001820180546109e090612095565b80601f0160208091040260200160405190810160405280929190818152602001828054610a0c90612095565b8015610a595780601f10610a2e57610100808354040283529160200191610a59565b820191906000526020600020905b815481529060010190602001808311610a3c57829003601f168201915b50505050508152602001600282015481525050905090565b60038181548110610a8157600080fd5b906000526020600020016000915054906101000a900473ffffffffffffffffffffffffffffffffffffffff1681565b60606000806000600160008673ffffffffffffffffffffffffffffffffffffffff1673ffffffffffffffffffffffffffffffffffffffff168152602001908152602001600020604051806060016040529081600082018054610b1190612095565b80601f0160208091040260200160405190810160405280929190818152602001828054610b3d90612095565b8015610b8a5780601f10610b5f57610100808354040283529160200191610b8a565b820191906000526020600020905b815481529060010190602001808311610b6d57829003601f168201915b50505050508152602001600182015481526020016002820160009054906101000a900460ff1615151515815250509050806000015181602001518260400151935093509350509193909250565b60028181548110610be757600080fd5b906000526020600020016000915090505481565b600080600090505b600480549050811015610c98578273ffffffffffffffffffffffffffffffffffffffff1660048281548110610c3b57610c3a612037565b5b9060005260206000200160009054906101000a900473ffffffffffffffffffffffffffffffffffffffff1673ffffffffffffffffffffffffffffffffffffffff1603610c8b576001915050610c9e565b8080600101915050610c03565b50600090505b919050565b60058181548110610cb357600080fd5b90600052602060002090600302016000915090508060000160009054906101000a900473ffffffffffffffffffffffffffffffffffffffff1690806001018054610cfc90612095565b80601f0160208091040260200160405190810160405280929190818152602001828054610d2890612095565b8015610d755780601f10610d4a57610100808354040283529160200191610d75565b820191906000526020600020905b815481529060010190602001808311610d5857829003601f168201915b5050505050908060020154905083565b6000600580549050905090565b6000600380549050905090565b610da7611857565b60008054906101000a900473ffffffffffffffffffffffffffffffffffffffff1673ffffffffffffffffffffffffffffffffffffffff163373ffffffffffffffffffffffffffffffffffffffff1614610e35576040517f08c379a0000000000000000000000000000000000000000000000000000000008152600401610e2c906125b3565b60405180910390fd5b6000805b600380549050811015610f4557600060038281548110610e5c57610e5b612037565b5b9060005260206000200160009054906101000a900473ffffffffffffffffffffffffffffffffffffffff1690506000805b600480549050811015610f21578273ffffffffffffffffffffffffffffffffffffffff1660048281548110610ec557610ec4612037565b5b9060005260206000200160009054906101000a900473ffffffffffffffffffffffffffffffffffffffff1673ffffffffffffffffffffffffffffffffffffffff1603610f145760019150610f21565b8080600101915050610e8d565b5080610f36578380610f32906125d3565b9450505b50508080600101915050610e39565b5060008111610f89576040517f08c379a0000000000000000000000000000000000000000000000000000000008152600401610f8090612667565b60405180910390fd5b600081424433604051602001610fa1939291906126f0565b6040516020818303038152906040528051906020012060001c610fc4919061275c565b90506000806000905060005b6003805490508110156110ed57600060038281548110610ff357610ff2612037565b5b9060005260206000200160009054906101000a900473ffffffffffffffffffffffffffffffffffffffff1690506000805b6004805490508110156110b8578273ffffffffffffffffffffffffffffffffffffffff166004828154811061105c5761105b612037565b5b9060005260206000200160009054906101000a900473ffffffffffffffffffffffffffffffffffffffff1673ffffffffffffffffffffffffffffffffffffffff16036110ab57600191506110b8565b8080600101915050611024565b50806110de578584036110cf5781945050506110ed565b83806110da906125d3565b9450505b50508080600101915050610fd0565b506000600160008473ffffffffffffffffffffffffffffffffffffffff1673ffffffffffffffffffffffffffffffffffffffff16815260200190815260200160002060405180606001604052908160008201805461114a90612095565b80601f016020809104026020016040519081016040528092919081815260200182805461117690612095565b80156111c35780601f10611198576101008083540402835291602001916111c3565b820191906000526020600020905b8154815290600101906020018083116111a657829003601f168201915b50505050508152602001600182015481526020016002820160009054906101000a900460ff161515151581525050905060405180606001604052808473ffffffffffffffffffffffffffffffffffffffff16815260200182600001518152602001826020015181525095506004839080600181540180825580915050600190039060005260206000200160009091909190916101000a81548173ffffffffffffffffffffffffffffffffffffffff021916908373ffffffffffffffffffffffffffffffffffffffff160217905550600586908060018154018082558091505060019003906000526020600020906003020160009091909190915060008201518160000160006101000a81548173ffffffffffffffffffffffffffffffffffffffff021916908373ffffffffffffffffffffffffffffffffffffffff16021790555060208201518160010190816113199190612370565b506040820151816002015550508273ffffffffffffffffffffffffffffffffffffffff167f67805734df42031323dc7850c4457bd6cb0e2c13910e0137bc0fb8458f6f34d582600001518360200151604051611376929190612442565b60405180910390a2505050505090565b60008054906101000a900473ffffffffffffffffffffffffffffffffffffffff1673ffffffffffffffffffffffffffffffffffffffff163373ffffffffffffffffffffffffffffffffffffffff1614611414576040517f08c379a000000000000000000000000000000000000000000000000000000000815260040161140b906125b3565b60405180910390fd5b60005b6003805490508110156114dd57600160006003838154811061143c5761143b612037565b5b9060005260206000200160009054906101000a900473ffffffffffffffffffffffffffffffffffffffff1673ffffffffffffffffffffffffffffffffffffffff1673ffffffffffffffffffffffffffffffffffffffff168152602001908152602001600020600080820160006114b2919061188e565b60018201600090556002820160006101000a81549060ff021916905550508080600101915050611417565b50600360006114ec91906118ce565b600460006114fa91906118ce565b6005600061150891906118ef565b600260006115169190611913565b6000600190505b606481116115645760006006600083815260200190815260200160002060006101000a81548160ff021916908315150217905550808061155c906125d3565b91505061151d565b507f6564d21026f38ac4bc4ef082b01864f3ae6869e139a373fdf664a27a6c6dbebb426040516115949190611e3e565b60405180910390a1565b60606005805480602002602001604051908101604052809291908181526020016000905b828210156116e657838290600052602060002090600302016040518060600160405290816000820160009054906101000a900473ffffffffffffffffffffffffffffffffffffffff1673ffffffffffffffffffffffffffffffffffffffff1673ffffffffffffffffffffffffffffffffffffffff16815260200160018201805461164b90612095565b80601f016020809104026020016040519081016040528092919081815260200182805461167790612095565b80156116c45780601f10611699576101008083540402835291602001916116c4565b820191906000526020600020905b8154815290600101906020018083116116a757829003601f168201915b50505050508152602001600282015481525050815260200190600101906115c2565b50505050905090565b60008054906101000a900473ffffffffffffffffffffffffffffffffffffffff1681565b606481565b600080600280549050606461172d919061250d565b67ffffffffffffffff81111561174657611745611caf565b5b6040519080825280602002602001820160405280156117745781602001602082028036833780820191505090505b509050600080600190505b606481116117ee576006600082815260200190815260200160002060009054906101000a900460ff166117db57808383815181106117c0576117bf612037565b5b60200260200101818152505081806117d7906125d3565b9250505b80806117e6906125d3565b91505061177f565b506000825142443360028054905060405160200161180f949392919061278d565b6040516020818303038152906040528051906020012060001c611832919061275c565b905082818151811061184757611846612037565b5b6020026020010151935050505090565b6040518060600160405280600073ffffffffffffffffffffffffffffffffffffffff16815260200160608152602001600081525090565b50805461189a90612095565b6000825580601f106118ac57506118cb565b601f0160209004906000526020600020908101906118ca9190611934565b5b50565b50805460008255906000526020600020908101906118ec9190611934565b50565b50805460008255600302906000526020600020908101906119109190611951565b50565b50805460008255906000526020600020908101906119319190611934565b50565b5b8082111561194d576000816000905550600101611935565b5090565b5b808211156119a357600080820160006101000a81549073ffffffffffffffffffffffffffffffffffffffff0219169055600182016000611992919061188e565b600282016000905550600301611952565b5090565b6000604051905090565b600080fd5b600080fd5b6000819050919050565b6119ce816119bb565b81146119d957600080fd5b50565b6000813590506119eb816119c5565b92915050565b600060208284031215611a0757611a066119b1565b5b6000611a15848285016119dc565b91505092915050565b600073ffffffffffffffffffffffffffffffffffffffff82169050919050565b6000611a4982611a1e565b9050919050565b611a5981611a3e565b82525050565b6000602082019050611a746000830184611a50565b92915050565b611a8381611a3e565b82525050565b600081519050919050565b600082825260208201905092915050565b60005b83811015611ac3578082015181840152602081019050611aa8565b60008484015250505050565b6000601f19601f8301169050919050565b6000611aeb82611a89565b611af58185611a94565b9350611b05818560208601611aa5565b611b0e81611acf565b840191505092915050565b611b22816119bb565b82525050565b6000606083016000830151611b406000860182611a7a565b5060208301518482036020860152611b588282611ae0565b9150506040830151611b6d6040860182611b19565b508091505092915050565b60006020820190508181036000830152611b928184611b28565b905092915050565b611ba381611a3e565b8114611bae57600080fd5b50565b600081359050611bc081611b9a565b92915050565b600060208284031215611bdc57611bdb6119b1565b5b6000611bea84828501611bb1565b91505092915050565b600082825260208201905092915050565b6000611c0f82611a89565b611c198185611bf3565b9350611c29818560208601611aa5565b611c3281611acf565b840191505092915050565b611c46816119bb565b82525050565b60008115159050919050565b611c6181611c4c565b82525050565b60006060820190508181036000830152611c818186611c04565b9050611c906020830185611c3d565b611c9d6040830184611c58565b949350505050565b600080fd5b600080fd5b7f4e487b7100000000000000000000000000000000000000000000000000000000600052604160045260246000fd5b611ce782611acf565b810181811067ffffffffffffffff82111715611d0657611d05611caf565b5b80604052505050565b6000611d196119a7565b9050611d258282611cde565b919050565b600067ffffffffffffffff821115611d4557611d44611caf565b5b611d4e82611acf565b9050602081019050919050565b82818337600083830152505050565b6000611d7d611d7884611d2a565b611d0f565b905082815260208101848484011115611d9957611d98611caa565b5b611da4848285611d5b565b509392505050565b600082601f830112611dc157611dc0611ca5565b5b8135611dd1848260208601611d6a565b91505092915050565b600060208284031215611df057611def6119b1565b5b600082013567ffffffffffffffff811115611e0e57611e0d6119b6565b5b611e1a84828501611dac565b91505092915050565b6000602082019050611e386000830184611c58565b92915050565b6000602082019050611e536000830184611c3d565b92915050565b6000606082019050611e6e6000830186611a50565b8181036020830152611e808185611c04565b9050611e8f6040830184611c3d565b949350505050565b600081519050919050565b600082825260208201905092915050565b6000819050602082019050919050565b6000606083016000830151611edb6000860182611a7a565b5060208301518482036020860152611ef38282611ae0565b9150506040830151611f086040860182611b19565b508091505092915050565b6000611f1f8383611ec3565b905092915050565b6000602082019050919050565b6000611f3f82611e97565b611f498185611ea2565b935083602082028501611f5b85611eb3565b8060005b85811015611f975784840389528151611f788582611f13565b9450611f8383611f27565b925060208a01995050600181019050611f5f565b50829750879550505050505092915050565b60006020820190508181036000830152611fc38184611f34565b905092915050565b7f496e646578206f7574206f6620626f756e647300000000000000000000000000600082015250565b6000612001601383611bf3565b915061200c82611fcb565b602082019050919050565b6000602082019050818103600083015261203081611ff4565b9050919050565b7f4e487b7100000000000000000000000000000000000000000000000000000000600052603260045260246000fd5b7f4e487b7100000000000000000000000000000000000000000000000000000000600052602260045260246000fd5b600060028204905060018216806120ad57607f821691505b6020821081036120c0576120bf612066565b5b50919050565b7f596f75206861766520616c726561647920656e7465726564207468652072616660008201527f666c650000000000000000000000000000000000000000000000000000000000602082015250565b6000612122602383611bf3565b915061212d826120c6565b604082019050919050565b6000602082019050818103600083015261215181612115565b9050919050565b7f416c6c206e756d626572732068617665206265656e2061737369676e65640000600082015250565b600061218e601e83611bf3565b915061219982612158565b602082019050919050565b600060208201905081810360008301526121bd81612181565b9050919050565b60008190508160005260206000209050919050565b60006020601f8301049050919050565b600082821b905092915050565b6000600883026122267fffffffffffffffffffffffffffffffffffffffffffffffffffffffffffffffff826121e9565b61223086836121e9565b95508019841693508086168417925050509392505050565b6000819050919050565b600061226d612268612263846119bb565b612248565b6119bb565b9050919050565b6000819050919050565b61228783612252565b61229b61229382612274565b8484546121f6565b825550505050565b600090565b6122b06122a3565b6122bb81848461227e565b505050565b5b818110156122df576122d46000826122a8565b6001810190506122c1565b5050565b601f821115612324576122f5816121c4565b6122fe846121d9565b8101602085101561230d578190505b612321612319856121d9565b8301826122c0565b50505b505050565b600082821c905092915050565b600061234760001984600802612329565b1980831691505092915050565b60006123608383612336565b9150826002028217905092915050565b61237982611a89565b67ffffffffffffffff81111561239257612391611caf565b5b61239c8254612095565b6123a78282856122e3565b600060209050601f8311600181146123da57600084156123c8578287015190505b6123d28582612354565b86555061243a565b601f1984166123e8866121c4565b60005b82811015612410578489015182556001820191506020850194506020810190506123eb565b8683101561242d5784890151612429601f891682612336565b8355505b6001600288020188555050505b505050505050565b6000604082019050818103600083015261245c8185611c04565b905061246b6020830184611c3d565b9392505050565b7f4e6f2077696e6e65727320796574000000000000000000000000000000000000600082015250565b60006124a8600e83611bf3565b91506124b382612472565b602082019050919050565b600060208201905081810360008301526124d78161249b565b9050919050565b7f4e487b7100000000000000000000000000000000000000000000000000000000600052601160045260246000fd5b6000612518826119bb565b9150612523836119bb565b925082820390508181111561253b5761253a6124de565b5b92915050565b7f4f6e6c792061646d696e2063616e2063616c6c20746869732066756e6374696f60008201527f6e00000000000000000000000000000000000000000000000000000000000000602082015250565b600061259d602183611bf3565b91506125a882612541565b604082019050919050565b600060208201905081810360008301526125cc81612590565b9050919050565b60006125de826119bb565b91507fffffffffffffffffffffffffffffffffffffffffffffffffffffffffffffffff82036126105761260f6124de565b5b600182019050919050565b7f4e6f20656c696769626c65207061727469636970616e7473206c656674000000600082015250565b6000612651601d83611bf3565b915061265c8261261b565b602082019050919050565b6000602082019050818103600083015261268081612644565b9050919050565b6000819050919050565b6126a261269d826119bb565b612687565b82525050565b60008160601b9050919050565b60006126c0826126a8565b9050919050565b60006126d2826126b5565b9050919050565b6126ea6126e582611a3e565b6126c7565b82525050565b60006126fc8286612691565b60208201915061270c8285612691565b60208201915061271c82846126d9565b601482019150819050949350505050565b7f4e487b7100000000000000000000000000000000000000000000000000000000600052601260045260246000fd5b6000612767826119bb565b9150612772836119bb565b9250826127825761278161272d565b5b828206905092915050565b60006127998287612691565b6020820191506127a98286612691565b6020820191506127b982856126d9565b6014820191506127c98284612691565b6020820191508190509594505050505056fea2646970667358221220e28f7c3373be4bfffebc8e3416aa80df72c0a747799dfe793336f84165d563f264736f6c634300081c0033",
  "linkReferences": {},
  "deployedLinkReferences": {}
}